:100000000C9434000C9449000C9449000C94490061
:100010000C9449000C9449000C9449000C9449003C
:100020000C9449000C9449000C9449000C9449002C
:100030000C9449000C9449000C9449000C9449001C
:100040000C9449000C9449000C9449000C9449000C
:100050000C9449000C9449000C9449000C944900FC
:100060000C9449000C94490011241FBECFEFD8E036
:10007000DEBFCDBF11E0A0E0B1E0ECE1F5E002C0F1
:1000800005900D92A831B107D9F70E944B000C944E
:100090008C020C940000DF93CF93CDB7DEB7EAE279
:1000A000F0E08FEF8083EBE2F0E01082E7E2F0E037
:1000B0008FEF8083E8E2F0E010828EE00E9427025A
:1000C0000E94950180E091E00E94D80181E191E0D9
:1000D0000E94D801FFCFDF93CF93CDB7DEB7A8E260
:1000E000B0E0E8E2F0E0808181608C9300C0A8E29B
:1000F000B0E0E8E2F0E080818E7F8C93CF91DF91D9
:100100000895DF93CF9300D00F92CDB7DEB78A83E7
:100110006B838B81882341F0A8E2B0E0E8E2F0E055
:10012000808182608C9307C0A8E2B0E0E8E2F0E052
:1001300080818D7F8C93A8E2B0E0E8E2F0E08081DE
:100140008B7F8C93AAE2B0E0EAE2F0E080818F60DE
:100150008C93EBE2F0E08081807F8983EBE2F0E03A
:100160008A81982F92959F708981892B80830E9424
:100170006B00EBE2F0E08A81982F9F708981892BD8
:1001800080830E946B00EBE2F0E089818F608083C6
:100190000F900F900F90CF91DF910895DF93CF9341
:1001A00000D0CDB7DEB78A838A81882341F0A8E2E8
:1001B000B0E0E8E2F0E0808182608C9307C0A8E2C2
:1001C000B0E0E8E2F0E080818D7F8C93A8E2B0E0BF
:1001D000E8E2F0E0808184608C93AAE2B0E0EAE299
:1001E000F0E08081807F8C93A8E2B0E0E8E2F0E06C
:1001F000808181608C9300C0E9E2F0E0808182958B
:10020000807F8983A8E2B0E0E8E2F0E080818E7F21
:100210008C9300C0A8E2B0E0E8E2F0E08081816069
:100220008C9300C0E9E2F0E08081982F9F70898173
:10023000892B8983A8E2B0E0E8E2F0E080818E7F3C
:100240008C9389810F900F90CF91DF910895DF9368
:10025000CF93CDB7DEB780E00E94CE008823DCF3D9
:1002600084E090E00E943A0180E00E94CE00CF91AD
:10027000DF910895DF93CF9300D0CDB7DEB79A8397
:10028000898389819A81009711F400C006C0898111
:100290009A810197F1F79A8389830F900F90CF91FC
:1002A000DF910895DF93CF930F92CDB7DEB78983A7
:1002B0000E942701898160E00E9481000F90CF9108
:1002C000DF910895DF93CF930F92CDB7DEB7898387
:1002D0000E942701898161E00E9481000F90CF91E7
:1002E000DF910895DF93CF9300D0CDB7DEB7898338
:1002F0006A838A81882329F4898180580E94520167
:1003000004C0898180540E9452010F900F90CF91B8
:10031000DF910895DF93CF93CDB7DEB70E94270119
:10032000882F90E0CF91DF910895DF93CF93CDB7E1
:10033000DEB781E00E945201CF91DF910895DF93F3
:10034000CF93CDB7DEB782E00E945201CF91DF910B
:100350000895DF93CF9300D0CDB7DEB78A830E9494
:10036000270189838A818A3021F489810E94C20110
:1003700004C08A8161E00E9481000F900F90CF91AC
:10038000DF910895DF93CF9300D0CDB7DEB7898397
:100390008981803418F480E48A8301C01A828A81BA
:1003A00080580E9452010F900F90CF91DF910895D5
:1003B000DF93CF9300D000D0CDB7DEB79A83898387
:1003C00003C08B810E94A901E981FA8180818B831E
:1003D0008B818C838C81882311F081E08C838C81CC
:1003E00029813A812F5F3F4F3A832983882349F738
:1003F0000F900F900F900F90CF91DF910895DF93A2
:10040000CF9300D000D000D0CDB7DEB79D838C83D2
:1004100003C08E810E94A9018C819D819B838A8368
:100420008C819D8101969D838C83EA81FB818491DF
:10043000898389818E838E81882359F726960FB60A
:10044000F894DEBF0FBECDBFCF91DF910895DF934B
:10045000CF930F92CDB7DEB78983AAE2B0E0EAE28C
:10046000F0E080818F608C93A7E2B0E0E7E2F0E0FB
:10047000808182608C93A7E2B0E0E7E2F0E08081C7
:1004800084608C93A7E2B0E0E7E2F0E080818160D5
:100490008C9380E09DE70E943A01ABE2B0E0EBE292
:1004A000F0E0808182608C93ABE2B0E0EBE2F0E0C0
:1004B000808181608C930E946B0080E097E20E94B3
:1004C0003A010E946B0080E890E00E943A010E948D
:1004D0006B0080E890E00E943A01ABE2B0E0EBE212
:1004E000F0E080818E7F8C930E946B0080E890E02A
:1004F0000E943A0188E20E94520188E00E94520163
:100500000E94950186E00E94520189810E94520159
:0C0510000F90CF91DF910895F894FFCF79
:10051C004C43442054657374204C696E6520310A39
:08052C00004C696E65203200ED
:00000001FF
